:100000000C9463000C948B000C948B000C946B0884
:100010000C946B080C946B080C948B000C948B0064
:100020000C948B000C948B000C948B000C948B0024
:100030000C948B000C948B000C948B000C948B0014
:100040000C9421080C948B000C94EF070C94C907B6
:100050000C948B000C948B000C948B000C948B00F4
:100060000C94E3080C948B0000000000240027008F
:100070002A0000000008000201000003040700003D
:1000800000000000000000000000230026002900FE
:1000900000000000250028002B00040404040404D0
:1000A0000404020202020202030303030303010227
:1000B00004081020408001020408102001020408F6
:1000C0001020020A1A0E11241FBECFEFD8E0DEBFA7
:1000D000CDBF24E0A2E5B2E001C01D92A133B2077A
:1000E000E1F712E0A0E0B1E0E0EFF5E202C0059038
:1000F0000D92A235B107D9F710E0C2E6D0E004C0F6
:100100002197FE010E94F310C136D107C9F70E9462
:10011000D40A0C94EB120C94000008950895DC01AD
:10012000ED91FC910190F081E02D0994AF92BF9286
:10013000CF92DF92EF92FF920F931F93CF93DF93B3
:100140006C017B018B01040F151FEB015E01AE18E2
:10015000BF08C017D10759F06991D601ED91FC9104
:100160000190F081E02DC6010995892B79F7C50131
:10017000DF91CF911F910F91FF90EF90DF90CF9083
:10018000BF90AF900895FC01538D448D252F30E032
:10019000842F90E0821B930B541710F0CF96089594
:1001A00001970895FC01918D828D981761F0A28DC1
:1001B000AE0FBF2FB11D5D968C91928D9F5F9F7387
:1001C000928F90E008958FEF9FEF0895FC01918D3D
:1001D000828D981731F0828DE80FF11D858D90E0AA
:1001E00008958FEF9FEF0895FC01918D228D892F47
:1001F00090E0805C9F4F821B91098F73992708952F
:1002000089E593E00E94F40021E0892B09F420E0C5
:10021000822F089580E090E0892B29F00E94000150
:1002200081110C9400000895FC01A48DA80FB92F32
:10023000B11DA35ABF4F2C91848D90E001968F730E
:100240009927848FA689B7892C93A089B1898C912D
:10025000837080648C93938D848D981306C002887C
:10026000F389E02D80818F7D80830895EF92FF9246
:100270000F931F93CF93DF93EC0181E0888F9B8DC9
:100280008C8D98131AC0E889F989808185FF15C083
:100290009FB7F894EE89FF896083E889F9898081A6
:1002A0008370806480839FBF81E090E0DF91CF9175
:1002B0001F910F91FF90EF900895F62E0B8D10E097
:1002C0000F5F1F4F0F731127E02E8C8D8E110CC006
:1002D0000FB607FCFACFE889F989808185FFF5CF51
:1002E000CE010E941401F1CFEB8DEC0FFD2FF11D1B
:1002F000E35AFF4FF0829FB7F8940B8FEA89FB898E
:1003000080818062CFCFCF93DF93EC01888D8823EB
:10031000B9F0AA89BB89E889F9898C9185FD03C068
:10032000808186FD0DC00FB607FCF7CF8C9185FF4D
:10033000F2CF808185FFEDCFCE010E941401E9CF7D
:10034000DF91CF91089590E0FC01EE58FF4F24918A
:10035000FC01E255FF4F3491FC01E656FF4FE4915A
:10036000EE23C9F0222339F0233001F1A8F4213023
:1003700019F1223029F1F0E0EE0FFF1FE057FF4F97
:10038000A591B4918FB7F894EC91611126C0309586
:100390003E233C938FBF08952730A9F02830C9F041
:1003A000243049F7809180008F7D03C080918000C8
:1003B0008F7780938000DFCF84B58F7784BDDBCFCC
:1003C00084B58F7DFBCF8091B0008F778093B00094
:1003D000D2CF8091B0008F7DF9CF3E2BDACFCF9373
:1003E000DF9390E0FC01E255FF4F249186569F4F2A
:1003F000FC0184918823D1F090E0880F991FFC01C3
:10040000E859FF4FA591B491FC01E057FF4FC5910A
:10041000D49161110EC09FB7F8948C91E22FE095B2
:100420008E238C932881E223E8839FBFDF91CF91B5
:1004300008958FB7F894EC91E22BEC938FBFF6CF31
:100440008E50806480937C0080917A0080648093D9
:100450007A0080917A0086FDFCCF8091780090919F
:10046000790008953FB7F8948091490390914A0329
:10047000A0914B03B0914C0326B5A89B05C02F3F1C
:1004800019F00196A11DB11D3FBFBA2FA92F982FBA
:100490008827BC01CD01620F711D811D911D42E0B5
:1004A000660F771F881F991F4A95D1F708958F927D
:1004B0009F92AF92BF92CF92DF92EF92FF924B0149
:1004C0005C010E9432026B017C010E9432026C19B5
:1004D0007D098E099F09683E734081059105A8F347
:1004E00021E0821A9108A108B10888EEC80E83E0C5
:1004F000D81EE11CF11C81149104A104B10429F758
:10050000FF90EF90DF90CF90BF90AF909F908F9033
:10051000089520914F03309150032817390771F443
:1005200090914D0380914E03981741F0E0914D0357
:10053000F0E0EC5FFC4F808190E008958FEF9FEF3B
:1005400008950895EF92FF920F931F93CF93DF9337
:10055000DC015C96ED90FC905D97E114F10479F478
:1005600081E090E013969C938E93129790E080E048
:10057000DF91CF911F910F91FF90EF9008955196C9
:10058000ED91FC91529750968C915097982F9095A1
:100590000FB75E962C915E97122F127021FD609519
:1005A000F8942081112319F1282B2083E70121974A
:1005B000F1F728E0462F50E0308160FF1AC0382B59
:1005C0003083E7012197F1F7BA01759567952150BE
:1005D00089F7112381F08081892380830FBF5C9686
:1005E0008D919C910197F1F781E090E0C1CF292393
:1005F000DCCF3923E5CF9081892BEFCF20914F03BA
:10060000309150032817390771F480914E032091DF
:100610004D0390E0805C9F4F821B910960E470E085
:100620000E94A910089590E080E0089520914F0362
:100630003091500328173907B9F490914D038091F8
:100640004E03981789F0E0914D03F0E0EC5FFC4F0A
:10065000808120914D0330E02F5F3F4F2F73332770
:1006600020934D0390E008958FEF9FEF0895089534
:1006700020919302260F3327331F21323105ECF4EA
:100680002091DC02FC0190E080E0243069F082E0FF
:100690000895A09193022191AC014D585D4FA40F94
:1006A000B52FB11D2C930196861798F38091930274
:1006B000680F6093930280E0089581E0089510929E
:1006C000DC0281E08093DB021092B60261E082E1FD
:1006D0000E94A30161E083E10E94A301E9EBF0E045
:1006E00080818E7F808380818D7F808388E480936A
:1006F000B80085E48093BC000895CF93DF9391E028
:10070000909372028823B9F0C091B800D091BA00DA
:100710008091BC008A7B8093BC0060E082E10E94F3
:10072000A30160E083E10E94A3010E945F03D093D4
:10073000BA00C093B800DF91CF910895E0915803BB
:1007400080915703E81730F4F0E0EE5AFD4F8081B6
:1007500090E008958FEF9FEF089590915803809156
:1007600057032FEF3FEF981748F4E92FF0E0EE5AC8
:10077000FD4F208130E09F5F90935803C901089599
:100780008091570390915803891B990B0895CF923C
:10079000DF92EF92FF920F931F93CF93DF937C0131
:1007A000CB018A012091E202222389F0EB016B0147
:1007B000C40ED51ECC15DD0569F06991D701ED9108
:1007C000FC910190F081E02DC7010995F3CF642FD2
:1007D0000E943803C801DF91CF911F910F91FF90C4
:1007E000EF90DF90CF900895CF93DF931F92CDB716
:1007F000DEB769832091E2022223F9F020915503AC
:10080000203258F021E030E0FC013383228390E075
:1008100080E00F90DF91CF91089580915603E82FEB
:10082000F0E0ED51FD4F998190838F5F80935603E7
:100830008093550381E090E0ECCF61E0CE0101961A
:100840000E943803F7CFCF92DF92EF92FF920F937F
:100850001F93CF93DF93FC01C48121E02093E20238
:10086000C093030310925603109255038385682B9F
:1008700086EF93E00E94F403D0915503D13208F043
:1008800092C00E9432026B017C018091DC028111D6
:1008900065C082E08093DC0281E08093DB028FEF11
:1008A0008093DA021092D902D093D802A3EEB2E07C
:1008B000E8EBF2E080E0D81385C01092B702809197
:1008C000B702CC0FC82BC093B7028091B60281301B
:1008D00009F07CC01092B6020E9432026B017C01CA
:1008E0008091B7028093BB008091DE029091DF027D
:1008F000A091E002B091E102892B8A2B8B2B99F019
:100900000E9432020091DE021091DF022091E0028B
:100910003091E1026C197D098E099F0906171707AE
:1009200028073907E0F18091BC0083FDD9CF85EC21
:100930008093BC000E9432026B017C018091DC023A
:10094000823009F445C08091DA028F3F61F18091D5
:10095000DA02803241F18091DA0225C08091DE0214
:100960009091DF02A091E002B091E102892B8A2BE5
:100970008B2B09F48ACF0E9432020091DE02109183
:10098000DF022091E0023091E1026C197D098E09AD
:100990009F09061717072807390708F076CF8091B7
:1009A000DD020E947D0310925603109255031092AF
:1009B000E202DF91CF911F910F91FF90EF90DF90B6
:1009C000CF9008959D9191938F5F75CF85EEB0CFB5
:1009D0008091DE029091DF02A091E002B091E102ED
:1009E000892B8A2B8B2B09F4A9CF0E94320200910C
:1009F000DE021091DF022091E0023091E1026C19D9
:100A00007D098E099F09061717072807390708F07F
:100A100095CFC5CF90E080E008950F931F93CF93BB
:100A20008C01C62F0E9423046C2F6460C8010E94B1
:100A300023046C2F6B7FC8010E94230483EC90E099
:100A40000197F1F7CF911F910F9108950F931F9385
:100A5000CF93DF938C01D62FC42F607F642B0E942D
:100A60000D0580E1D89FB00111246C2BC801DF91E6
:100A7000CF911F910F910C940D05CF93DF93CDB7BC
:100A8000DEB728970FB6F894DEBF0FBECDBF98E053
:100A9000E6E0F1E0DE01119601900D929A95E1F702
:100AA00090912904961708F46FEF262F30E0220F5B
:100AB000331F41E050E04C0F5D1F240F351FF9013B
:100AC0006081680F606840E081E294E028960FB68C
:100AD000F894DEBF0FBECDBFDF91CF910C942605F9
:100AE00040E061E081E294E00E9426058BE39FE113
:100AF0000197F1F7089541E00E94260581E090E01A
:100B00000895FB0101900020E9F73197AF01461BE2
:100B1000570BDC01ED91FC910280F381E02D0994EB
:100B20008F929F92AF92BF92EF92FF920F931F937B
:100B3000CF93DF93CDB7DEB7A1970FB6F894DEBFA2
:100B40000FBECDBF7C01FA01CB0119A2223008F4FF
:100B50002AE08E010F5D1F4F822E912CB12CA12C0B
:100B6000BF01A50194010E94BD10F901CA016A30BC
:100B70000CF5605DD8016E938D01232B242B252B62
:100B800079F790E080E0109721F0BD01C7010E9445
:100B90008105A1960FB6F894DEBF0FBECDBFDF91E1
:100BA000CF911F910F91FF90EF90BF90AF909F90CA
:100BB0008F900895695CDECFCF92DF92EF92FF9223
:100BC0000F931F93CF93DF936B01770FEE08FF080E
:100BD000F7FE1BC0EC016DE20E948F008C014427E0
:100BE0005527BA014C195D096E097F092AE0CE012B
:100BF0000E949005800F911FDF91CF911F910F915F
:100C0000FF90EF90DF90CF9008952AE0B701A60102
:100C1000DF91CF911F910F91FF90EF90DF90CF90D8
:100C20000C9490052F923F924F925F926F927F9219
:100C30008F929F92AF92BF92CF92DF92EF92FF92EC
:100C40001F93CF93DF93EC016A017B01722EAB01FE
:100C50009601CB01B6010E94A41060E571E08111FC
:100C600026C046015701E894B7F82FEF3FEF4FE752
:100C70005FE7C501B4010E94A41081110CC02FEFE1
:100C80003FEF4FE75FE7C501B4010E94360E64E510
:100C900071E0181664F02FEF3FEF4FE75FE4C701F4
:100CA000B6010E949F101816B4F468E571E0CE01F9
:100CB000DF91CF911F91FF90EF90DF90CF90BF9089
:100CC000AF909F908F907F906F905F904F903F90EC
:100CD0002F900C9481052FEF3FEF4FE75FECC7019A
:100CE000B6010E94360E87FDE0CF20E030E0A9017A
:100CF000C701B6010E94360E312C212C87FF09C096
:100D00006DE2CE010E948F001C01F7FAF094F7F813
:100D1000F09410E060E070E080E09FE3711641F035
:100D200020E030E040E251E40E94FE0F1F5FF6CF6A
:100D3000A70196010E94920F2B013C010E947010A6
:100D40004B015C012AE0BC01A401CE010E94900588
:100D50007C01E20CF31C1123C1F1C501B4010E9416
:100D60003B0E9B01AC01C301B2010E94910F4B01EC
:100D70005C016EE2CE010E948F00E80EF91E115058
:100D800020F120E030E040E251E4C501B4010E94CE
:100D90009C0E2B013C010E9470104B01B12CA12C28
:100DA0002AE0B501A401CE010E949005E80EF91ECB
:100DB000C501B4010E943B0E9B01AC01C301B2010D
:100DC0000E94910F4B015C01DACFC701DF91CF91F7
:100DD0001F91FF90EF90DF90CF90BF90AF909F90CA
:100DE0008F907F906F905F904F903F902F900895DD
:100DF0000F931F93CF93DF93EC010E9481058C0129
:100E00006CE571E0CE010E948105800F911FDF919A
:100E1000CF911F910F9108950F931F93CF93DF935D
:100E2000EC0188819981009759F02A813B8126172E
:100E3000370730F081E0DF91CF911F910F91089536
:100E40008B016F5F7F4F0E941E12009759F09983AC
:100E500088831B830A832C813D81232B59F7FC0156
:100E60001082E8CF80E0E7CFEF92FF920F931F93BD
:100E7000CF93DF93FB0101900020E9F73197E61B48
:100E8000F70BE1F07B018C01DC011496CD91DC9134
:100E9000CE0FDF1FBE010E940C07882381F0F801EE
:100EA0002081318184819581B701820F931F0E9437
:100EB000E412D8011596DC93CE93149781E0DF916C
:100EC000CF911F910F91FF90EF900895EF92FF92B5
:100ED0000F931F93CF93DF93EC017B018A01BA013B
:100EE0000E940C0728813981811114C02115310518
:100EF00019F0C9010E949511198218821D821C8265
:100F00001B821A82CE01DF91CF911F910F91FF902A
:100F1000EF9008951D830C83B701C9010E94E4126C
:100F2000F1CF85ED8093BC008091DE029091DF02CD
:100F3000A091E002B091E1020796A11DB11D23E04E
:100F4000B695A795979587952A95D1F72091BC00DE
:100F500024FD03C01092DC0208954091DE025091FE
:100F6000DF026091E0027091E102452B462B472B96
:100F700069F30097A105B10541F025E32A95F1F742
:100F800000000197A109B109E1CF8091DD020C9425
:100F90007D031F920F920FB60F9211242F933F9350
:100FA0004F935F936F937F938F939F93AF93BF9371
:100FB000EF93FF9389E593E00E941401FF91EF9175
:100FC000BF91AF919F918F917F916F915F914F9161
:100FD0003F912F910F900FBE0F901F9018951F9269
:100FE0000F920FB60F9211242F938F939F93EF932D
:100FF000FF93E0916903F0916A038081E0916F03B0
:10100000F091700382FD1BC09081809172038F5F0D
:101010008F7320917303821741F0E0917203F0E027
:10102000E75AFC4F958F80937203FF91EF919F9148
:101030008F912F910F900FBE0F901F901895808168
:10104000F4CF1F920F920FB60F9211242F933F935C
:101050008F939F93AF93BF938091450390914603E5
:10106000A0914703B09148033091440323E0230F3C
:101070002D3758F50196A11DB11D2093440380938F
:10108000450390934603A0934703B0934803809190
:10109000490390914A03A0914B03B0914C030196F0
:1010A000A11DB11D8093490390934A03A0934B0364
:1010B000B0934C03BF91AF919F918F913F912F912E
:1010C0000F900FBE0F901F90189526E8230F0296E1
:1010D000A11DB11DD2CF1F920F920FB60F921124F6
:1010E0002F933F934F935F936F937F938F939F9330
:1010F000AF93BF93EF93FF93E0914F03F0915003B1
:10110000309749F0A685B7858585968D91FF14C0E7
:101110009C918923A1F4FF91EF91BF91AF919F9191
:101120008F917F916F915F914F913F912F910F9090
:101130000FBE0F901F9018959C91892361F7A3898A
:10114000B4899C918589809589238C938689978918
:101150000197F1F7608D718DA685B785558538E0CB
:1011600020E0CB010197F1F7822F90E095958795CC
:10117000282F4C91452309F02068315091F7868D36
:1011800081FD209580914E0390E001968F73992701
:1011900030914D03381799F0A0914E03B0E0AC5F49
:1011A000BC4F2C9380934E03828D938D0197F1F762
:1011B000A389B4898C919589892B8C93ACCF868D2A
:1011C0008160868FF1CF1F920F920FB60F9211247C
:1011D0002F933F934F935F936F937F938F939F933F
:1011E000AF93BF93EF93FF938091B900887F8036D0
:1011F00009F44AC0F0F5883209F4A7C018F5803127
:1012000009F49BC0B8F4882309F4F9C0883009F4C4
:1012100094C0FF91EF91BF91AF919F918F917F917A
:101220006F915F914F913F912F910F900FBE0F9053
:101230001F901895883109F488C0803251F7809347
:10124000DA0214C0803409F49DC040F48033B9F34D
:101250008833F9F68093DA0285ECB0C0803509F462
:1012600085C0883509F496C0883499F60E949107A4
:10127000D0CF883909F48CC038F5883729F050F47C
:10128000883611F0803729F683E08093DC021092D3
:10129000B50257C0883809F47BC0803919F080380E
:1012A00009F0B7CF8091B502803208F071C0E091AB
:1012B000B50281E08E0F8093B5028091BB00F0E013
:1012C000EB56FD4F80833DC0803B39F0E0F4803A1F
:1012D00009F479C0883A09F09CCF84E08093DC025D
:1012E0001092940210929302E0915303F0915403F0
:1012F00009958091930281110FC081E08093930240
:101300001092730209C0803C09F4A6CF883C09F40E
:10131000A3CF883B09F07DCFE091940281E08E0F4E
:1013200080939402F0E0ED58FD4F80818093BB00E4
:10133000909194028091930229C08091B70280938A
:10134000BB0085EC8093BC0064CF9091D902809162
:10135000D802981758F5E091D90281E08E0F80935A
:10136000D902F0E0E854FD4F8081E9CFE091D90245
:1013700081E08E0F8093D9028091BB00F0E0E854A9
:10138000FD4F80839091D9028091D8029817C8F2BE
:1013900085E8D8CFE091D90281E08E0F8093D90201
:1013A0008091BB00F0E0E854FD4F80838091DB0228
:1013B00081115CCF81E08093B60284EA8093BC0007
:1013C0001092DC0226CF85EC8093BC001092DC02E8
:1013D0008091B502803230F4E091B502F0E0EB5636
:1013E000FD4F10826091B50270E0E0915103F091E1
:1013F000520385E992E009951092B5020ACF109246
:10140000DA0234CF10925C0310925B0388EE93E013
:10141000A0E0B0E080935D0390935E03A0935F0330
:10142000B093600322E131E030935A0320935903D3
:1014300025EC30E0309366032093650324EC30E024
:10144000309368032093670320EC30E030936A0305
:101450002093690321EC30E030936C0320936B03FD
:1014600022EC30E030936E0320936D0326EC30E0E5
:101470003093700320936F031092720310927303E2
:1014800010927403109275031092F9031092F803EE
:101490008093FA039093FB03A093FC03B093FD03A6
:1014A00024E231E03093F7032093F60310922404F2
:1014B0001092230428E431E0309322042093210485
:1014C00027E22093250420E120932A0422E02093A0
:1014D0002B0410922C0410920504109204048093A3
:1014E000060490930704A0930804B093090486E3CC
:1014F00091E09093030480930204109219041092D7
:10150000180410921B0410921A0410921D041092D9
:101510001C0410921F0410921E04609120046E7F20
:101520006D7F609320046695617081E0682783E099
:101530000E94A30161E083E00E94EF01E1EBF0E093
:10154000E491E0931204EDE9F0E0E491F0E0EE0FB5
:10155000FF1FE057FF4F859194919093140480935F
:10156000130460E082E00E94EF018091200481FD7D
:1015700004C061E082E00E94A30182E080930E0437
:10158000E0EBF0E0E491E0930F04ECE9F0E0E491AB
:10159000F0E0EE0FFF1FEA57FF4F85919491909373
:1015A0001104809310040895CF93DF93CDB7DEB775
:1015B0002C970FB6F894DEBF0FBECDBF789484B5DC
:1015C000826084BD84B5816084BD85B5826085BD3F
:1015D00085B5816085BD80916E00816080936E00CD
:1015E00010928100809181008260809381008091BF
:1015F0008100816080938100809180008160809370
:1016000080008091B10084608093B1008091B0002F
:1016100081608093B00080917A00846080937A002A
:1016200080917A00826080937A0080917A00816054
:1016300080937A0080917A00806880937A0010927B
:10164000C100E0916903F0916A0382E08083E09138
:101650006503F09166031082E0916703F0916803DF
:101660008FEC808310927103E0916D03F0916E0313
:1016700086E08083E0916B03F0916C038081806150
:101680008083E0916B03F0916C038081886080839C
:10169000E0916B03F0916C03808180688083E0911E
:1016A0006B03F0916C0380818F7D808310921D0409
:1016B00010921C0410921B0410921A041092190428
:1016C000109218048DE991E090931F0480931E04FA
:1016D00090910E04963108F047C02DEB30E0309326
:1016E0001904209318042BE931E030931B04209354
:1016F0001A042CE231E030931D0420931C04209145
:10170000680084E0983048F031E09E3008F430E022
:1017100081E001C0880F3A95EAF7822B8093680038
:101720002DE630E0983050F02BE630E09E3030F07F
:101730002CE630E0963110F030E020E030931604D3
:1017400020931504292F30E0983008F051C281E031
:1017500001C0880F9A95EAF78093170480911E04C0
:1017600090911F040197F1F780911C0490911D0442
:10177000892B49F1E0914F03F091500384E0E2306E
:10178000F80709F1309739F0A389B4899C918589CC
:10179000809589238C93809120048E7F80932004F0
:1017A00010924E0310924D0382E094E09093500308
:1017B00080934F03E0911504F0911604808190917D
:1017C0001704892B808310925803109257031092AC
:1017D0005603109255030E945F038DE890E09093AA
:1017E0005403809353038EE890E0909352038093C8
:1017F00051031092260480912B04823018F098E057
:10180000909326048093290462E370E080E090E0E6
:101810000E94570260912C0481E294E00E9423040C
:1018200068EE73E080E090E00E94570260E381E29E
:1018300094E00E940D050BE416E4C8010197F1F74E
:1018400060E381E294E00E940D05C8010197F1F781
:1018500060E381E294E00E940D0583E592E0019748
:10186000F1F760E281E294E00E940D0560912604A8
:10187000606240E081E294E00E94260584E080936B
:10188000270440E06CE081E294E00E9426050E947B
:10189000700582E08093280440E066E081E294E0F5
:1018A0000E94260540E062E081E294E00E94260565
:1018B0008BE39FE10197F1F788E080932C0460E0CF
:1018C00081E294E00E94230461E086E00E94EF013F
:1018D00061E084E00E94EF0161E085E00E94EF0199
:1018E00060E080E00E943D056FE571E081E294E0F8
:1018F0000E94810561E080E00E943D056FE671E095
:1019000081E294E00E9481056CE271E080E090E069
:101910000E9457020E94700560E080E00E943D0531
:101920006FE771E081E294E00E94810568EC70E06D
:1019300080E090E00E9457020E94700560E080E025
:101940000E943D056FE871E081E294E00E9481050C
:101950006EE971E089E593E00E94F80664E670E0C4
:1019600080E090E00E94570280E0882E80E0982E70
:101970008FE00E942002BC01990F880B990B0E94F6
:101980003D0E20E030E04AEF5EE30E949C0E2B010A
:101990003C018EE00E9420025C0180E10E94200256
:1019A0008C010E94700560E080E00E943D0562ECC1
:1019B00071E081E294E00E94810561E080E00E9494
:1019C0003D05B50181E294E00E94DC0561E085E01F
:1019D0000E943D05B80181E294E00E94DC0561E0CF
:1019E0008BE00E943D0521E0B301A20181E294E079
:1019F0000E94120662ED71E081E294E00E9481058E
:101A000064ED71E089E593E00E94810522E0B30175
:101A1000A20189E593E00E94120662EE71E089E579
:101A200093E00E948105B50189E593E00E94DC0501
:101A300062EF71E089E593E00E9481056801012E63
:101A4000000CEE08FF082AE0B701A601F7FE0DC062
:101A50006DE289E593E00E948F0044275527BA0183
:101A60004C195D096E097F092AE089E593E00E941F
:101A700090056CE571E089E593E00E948105188688
:101A80001F821A8619861C861B8647E050E062E09A
:101A900072E0CE0107960E94660720E030E040EF3A
:101AA00051E4C301B2010E949F1018160CF0ADC0A2
:101AB0006AE072E0CE0107960E94340781E091E966
:101AC000A91691E0B9060CF4A2C066E172E0CE015D
:101AD00007960E9434070130124034F061E272E050
:101AE000CE0107960E94340761E084E00E94A301C2
:101AF00060E086E00E94A30161E085E00E94A3010E
:101B00001A8219821C821B821E821D826F81788537
:101B10006115710531F04B855C85CE0101960E94FF
:101B200066076EE272E082E094E00E94F80668EEDA
:101B300073E080E090E00E94570261E372E082E08F
:101B400094E00E94F80668EE73E080E090E00E9466
:101B500057026BE372E082E094E00E94F80668EEC0
:101B600073E080E090E00E9457024D815E816981C0
:101B70007A8182E094E00E9496006CE571E082E058
:101B800094E00E94810568EE73E080E090E00E949E
:101B900057026AE182E094E00E948F006CE571E0F8
:101BA00082E094E00E94810568EE73E080E090E0BE
:101BB0000E94570289819A81009711F00E94951125
:101BC00068EC70E080E090E00E9457028F81988579
:101BD000009711F00E9495118114910409F4C8CE68
:101BE0000E940001882309F4C3CE0E940000C0CEE9
:101BF0009E3040F42850310981E001C0880F2A95B9
:101C0000EAF7AACD2E503109F7CF80E058CF013046
:101C100012400CF063CF811167CF60E084E00E9436
:101C2000A30161E086E00E94A30160E085E00E94DC
:101C3000A301C6CF86E391E090930304809302044E
:101C400080914F03909150038250944071F4E09141
:101C50001504F091160490818091170480958923D2
:101C600080831092500310924F0308950E94780EC3
:101C700008F481E00895E89409C097FB3EF490953C
:101C80008095709561957F4F8F4F9F4F9923A9F055
:101C9000F92F96E9BB279395F695879577956795E4
:101CA000B795F111F8CFFAF4BB0F11F460FF1BC028
:101CB0006F5F7F4F8F4F9F4F16C0882311F096E9BB
:101CC00011C0772321F09EE8872F762F05C0662369
:101CD00071F096E8862F70E060E02AF09A95660F22
:101CE000771F881FDAF7880F9695879597F90895DB
:101CF000990F0008550FAA0BE0E8FEEF161617061D
:101D0000E807F907C0F012161306E407F50798F084
:101D1000621B730B840B950B39F40A2661F0232B9D
:101D2000242B252B21F408950A2609F4A140A69519
:101D30008FEF811D811D08950E94AF0E0C94200F1E
:101D40000E94120F38F00E94190F20F0952311F015
:101D50000C94090F0C940F0F11240C94540F0E9433
:101D6000310F70F3959FC1F3950F50E0551F629F9F
:101D7000F001729FBB27F00DB11D639FAA27F00DE4
:101D8000B11DAA1F649F6627B00DA11D661F829F0B
:101D90002227B00DA11D621F739FB00DA11D621FF0
:101DA000839FA00D611D221F749F3327A00D611D0D
:101DB000231F849F600D211D822F762F6A2F1124EF
:101DC0009F5750409AF0F1F088234AF0EE0FFF1F22
:101DD000BB1F661F771F881F91505040A9F79E3F79
:101DE000510580F00C94090F0C94540F5F3FE4F3FD
:101DF000983ED4F3869577956795B795F795E795CF
:101E00009F5FC1F7FE2B880F911D9695879597F9D7
:101E1000089597F99F6780E870E060E008959FEF6C
:101E200080EC089500240A94161617061806090671
:101E3000089500240A941216130614060506089540
:101E4000092E0394000C11F4882352F0BB0F40F4C8
:101E5000BF2B11F460FF04C06F5F7F4F8F4F9F4F08
:101E6000089557FD9058440F551F59F05F3F71F08A
:101E70004795880F97FB991F61F09F3F79F08795F1
:101E80000895121613061406551FF2CF4695F1DF7A
:101E900008C0161617061806991FF1CF869571050A
:101EA000610508940895E894BB2766277727CB013E
:101EB00097F908952F923F924F925F926F927F927F
:101EC0008F929F92AF92BF92CF92DF92EF92FF924A
:101ED0000F931F93CF93DF93CDB7DEB7CA1BDB0BF6
:101EE0000FB6F894DEBF0FBECDBF09942A8839889B
:101EF00048885F846E847D848C849B84AA84B984A2
:101F0000C884DF80EE80FD800C811B81AA81B981AD
:101F1000CE0FD11D0FB6F894DEBF0FBECDBFED01C1
:101F200008955058BB27AA270E94A90F0C94200F90
:101F30000E94120F38F00E94190F20F039F49F3FD1
:101F400019F426F40C940F0F0EF4E095E7FB0C94B3
:101F5000090FE92F0E94310F58F3BA176207730770
:101F60008407950720F079F4A6F50C94530F0EF42E
:101F7000E0950B2EBA2FA02D0B01B90190010C0199
:101F8000CA01A0011124FF27591B99F0593F50F4B1
:101F9000503E68F11A16F040A22F232F342F442709
:101FA000585FF3CF469537952795A795F040539501
:101FB000C9F77EF41F16BA0B620B730B840BBAF0D1
:101FC0009150A1F0FF0FBB1F661F771F881FC2F73C
:101FD0000EC0BA0F621F731F841F48F48795779550
:101FE0006795B795F7959E3F08F0B0CF9395880F0A
:101FF00008F09927EE0F9795879508950E94121083
:102000000C94200F0E94190F58F00E94120F40F0FC
:1020100029F45F3F29F00C94090F51110C94540FCF
:102020000C940F0F0E94310F68F39923B1F35523DD
:1020300091F3951B550BBB27AA27621773078407DB
:1020400038F09F5F5F4F220F331F441FAA1FA9F371
:1020500035D00E2E3AF0E0E832D091505040E6955F
:10206000001CCAF72BD0FE2F29D0660F771F881FC0
:10207000BB1F261737074807AB07B0E809F0BB0BB3
:10208000802DBF01FF2793585F4F3AF09E3F5105C7
:1020900078F00C94090F0C94540F5F3FE4F3983ED2
:1020A000D4F3869577956795B795F7959F5FC9F7B0
:1020B000880F911D9695879597F90895E1E0660F31
:1020C000771F881FBB1F621773078407BA0720F0AA
:1020D000621B730B840BBA0BEE1F88F7E095089513
:1020E0000E94390F88F09F5798F0B92F9927B75160
:1020F000B0F0E1F0660F771F881F991F1AF0BA95AC
:10210000C9F714C0B13091F00E94530FB1E00895A7
:102110000C94530F672F782F8827B85F39F0B93F99
:10212000CCF3869577956795B395D9F73EF490955E
:102130008095709561957F4F8F4F9F4F08950E94B6
:10214000780E08F48FEF08950E94780E880B990B93
:10215000089597FB072E16F4009407D077FD09D059
:102160000E94DF1007FC05D03EF4909581959F4FAB
:102170000895709561957F4F0895A1E21A2EAA1BCC
:10218000BB1BFD010DC0AA1FBB1FEE1FFF1FA21727
:10219000B307E407F50720F0A21BB30BE40BF50B24
:1021A000661F771F881F991F1A9469F760957095AD
:1021B000809590959B01AC01BD01CF010895AA1BAC
:1021C000BB1B51E107C0AA1FBB1FA617B70710F022
:1021D000A61BB70B881F991F5A95A9F78095909554
:1021E000BC01CD010895EE0FFF1F0590F491E02D85
:1021F00009940F931F93CF93DF938230910510F4CE
:1022000082E090E0E0912F04F091300430E020E093
:10221000B0E0A0E0309799F42115310509F44AC0E7
:10222000281B390B24303105D8F58A819B81611533
:10223000710589F1FB0193838283FE0111C0408106
:1022400051810281138148175907E0F04817590757
:1022500099F4109761F012960C93129713961C93B1
:102260003296CF01DF91CF911F910F910895009386
:102270002F0410933004F4CF2115310551F042178B
:10228000530738F0A901DB019A01BD01DF01F80114
:10229000C1CFEF01F9CF9093300480932F04CDCFBD
:1022A000FE01E20FF31F819391932250310939838C
:1022B0002883D7CF20912D0430912E04232B41F475
:1022C000209102013091030130932E0420932D04BC
:1022D00020910001309101012115310541F42DB704
:1022E0003EB74091040150910501241B350BE0914C
:1022F0002D04F0912E04E217F307A0F42E1B3F0BE0
:102300002817390778F0AC014E5F5F4F2417350767
:1023100048F04E0F5F1F50932E0440932D0481937D
:1023200091939FCFF0E0E0E09CCFCF93DF930097B5
:10233000E9F0FC01329713821282A0912F04B09130
:102340003004ED0130E020E01097A1F420813181CC
:10235000820F931F20912D0430912E0428173907E6
:1023600009F061C0F0932E04E0932D04DF91CF912A
:102370000895EA01CE17DF07E8F54A815B819E01E7
:1023800041155105B1F7E901FB83EA834991599160
:10239000C40FD51FEC17FD0761F48081918102966F
:1023A000840F951FE90199838883828193819B83A0
:1023B0008A83F0E0E0E012968D919C91139700974C
:1023C000B9F52D913C911197CD010296820F931F83
:1023D00020912D0430912E042817390739F63097B3
:1023E00051F51092300410922F04B0932E04A09354
:1023F0002D04BCCFD383C28340815181840F951FAC
:10240000C817D90761F44E5F5F4F88819981480FE3
:10241000591F518340838A819B8193838283211535
:10242000310509F0B0CFF0933004E0932F049ECF34
:10243000FD01DC01C0CF13821282D7CFB0E0A0E053
:10244000E4E2F2E10C945C0F8C01009751F4CB01B3
:102450000E94F9108C01C801CDB7DEB7E0E10C9401
:10246000780FFC01E60FF71F9C0122503109E2179B
:10247000F30708F49DC0D901CD91DC911197C617DF
:10248000D70798F0C530D10530F3CE0104978617F1
:10249000970708F3C61BD70B2297C193D1936D936F
:1024A0007C93CF010E949511D6CF5B01AC1ABD0A77
:1024B0004C018C0E9D1EA0912F04B0913004512C24
:1024C000412CF12CE12C109731F580912D04909145
:1024D0002E048815990509F05CC04616570608F0C9
:1024E00058C08091000190910101009741F48DB78F
:1024F0009EB74091040150910501841B950BE8178C
:10250000F90708F055C0F0932E04E0932D04F9016B
:1025100071836083A0CF8D919C91119712966C90DE
:10252000129713967C901397A815B90559F56C016D
:1025300042E0C40ED11CCA14DB0420F1AC014A19DC
:102540005B09DA011296159780F0628273825183DB
:102550004083D9016D937C93E114F10471F0D701AC
:102560001396FC93EE93129776CF22968C0F9D1FB5
:10257000F90191838083F301EFCFF0933004E0936E
:102580002F0469CF4816590608F42C017D01D301A8
:102590009ACFCB010E94F9107C01009749F0AE015F
:1025A000B8010E94DB12C8010E949511870153CF28
:1025B00010E000E050CFFB01DC0102C001900D9261
:1025C00041505040D8F70895FB01DC0101900D9275
:1025D0000020E1F7089510E0C2E6D0E004C0FE015B
:1025E0000E94F3102196C336D107C9F7F894FFCFA4
:1025F000000031048000000040001400540000007E
:10260000000036019600C3008301F400D200E6000A
:1026100000000000F403C7030A05A102C003AD03D4
:102620009E0300000000A20296000A05A102FE021D
:1026300016038902000000007B0596000A05370397
:102640006E616E00696E66006F7666000D0A00535B
:102650006D6172742045636F6D65746572200062F0
:10266000792042757961204B616C6963686100492A
:102670006E697469616C697A696E672E2E2E0045E9
:10268000636F6D657465722052656164790045639E
:102690006F6D657465722056312E30202D2050727A
:1026A0006573656E7465642062792044656674653F
:1026B000630047617320204E6F6973652054656D18
:1026C0007000430054656D70657261747572653A8F
:1026D000200020432C20476173204C6576656C3ABE
:1026E00020002C204E6F697365204C6576656C3A2E
:1026F0002000416C65727421200054656D70204883
:102700006967682120004761732048696768212054
:10271000004E6F6973652048696768212000415445
:102720000041542B434D47463D310041542B434D0E
:1027300047533D222B313233343536373839302246
:02274000000097
:00000001FF
